:020000040000FA
:100000000C9463000C948B000C948B000C941504DE
:100010000C9415040C9415040C948B000C948B0018
:100020000C948B000C948B000C948B000C948B0024
:100030000C948B000C948B000C948B000C948B0014
:100040000C9473030C948B000C94E3030C94BD0389
:100050000C948B000C948B000C948B000C948B00F4
:100060000C948B000C948B000000000024002700EF
:100070002A0000000008000201000003040700003D
:1000800000000000000000000000230026002900FE
:1000900000000000250028002B00040404040404D0
:1000A0000404020202020202030303030303010227
:1000B00004081020408001020408102001020408F6
:1000C00010208D04C20611241FBECFEFD8E0DEBF82
:1000D000CDBF11E0A0E0B1E0E2EEFDE002C005908E
:1000E0000D92A039B107D9F722E0A0E9B1E001C033
:1000F0001D92AA39B207E1F710E0C2E6D0E004C0D1
:100100002197FE010E94DE06C136D107C9F70E9481
:1001100036050C94E4060C940000833081F028F43A
:10012000813099F08230A9F008958730A9F08830A5
:10013000C9F08430B1F4809180008F7D03C080913C
:1001400080008F7780938000089584B58F7784BD79
:10015000089584B58F7DFBCF8091B0008F77809319
:10016000B00008958091B0008F7DF9CFCF93DF93D9
:10017000282F30E0F901EE58FF4F8491F901E25544
:10018000FF4FD491F901E656FF4FC491CC23A1F063
:1001900081110E948D00EC2FF0E0EE0FFF1FEA5757
:1001A000FF4FA591B491EC91ED2381E090E009F42B
:1001B00080E0DF91CF91089580E090E0FACF1F9327
:1001C000CF93DF93282F30E0F901EE58FF4F849151
:1001D000F901E255FF4FD491F901E656FF4FC49162
:1001E000CC23A9F0162F81110E948D00EC2FF0E096
:1001F000EE0FFF1FE057FF4FA591B4918FB7F89412
:10020000EC91111108C0D095DE23DC938FBFDF91F4
:10021000CF911F910895DE2BF8CFCF93DF9390E01D
:10022000FC01E255FF4F249186569F4FFC018491BB
:100230008823D1F090E0880F991FFC01E859FF4F07
:10024000A591B491FC01E057FF4FC591D491611184
:100250000EC09FB7F8948C91E22FE0958E238C937B
:100260002881E223E8839FBFDF91CF9108958FB764
:10027000F894EC91E22BEC938FBFF6CF3FB7F89454
:100280008091DA019091DB01A091DC01B091DD0158
:1002900026B5A89B05C02F3F19F00196A11DB11DE1
:1002A0003FBFBA2FA92F982F8827BC01CD01620F1D
:1002B000711D811D911D42E0660F771F881F991FD8
:1002C0004A95D1F708958F929F92AF92BF92CF92A5
:1002D000DF92EF92FF924B015C010E943E016B01A5
:1002E0007C010E943E016C197D098E099F09683EC0
:1002F000734081059105A8F321E0821A9108A108B5
:10030000B10888EEC80E83E0D81EE11CF11C8114F0
:100310009104A104B10429F7FF90EF90DF90CF90F2
:10032000BF90AF909F908F900895AF92BF92CF9261
:10033000DF92EF92FF920F931F93CF93DF936C01A5
:100340007B018B01040F151FEB015E01AE18BF0886
:10035000C017D10759F06991D601ED91FC91019038
:10036000F081E02DC6010995892B79F7C501DF9150
:10037000CF911F910F91FF90EF90DF90CF90BF90A2
:10038000AF900895FC01538D448D252F30E0842FCC
:1003900090E0821B930B541710F0CF9608950197AD
:1003A0000895FC01918D828D981761F0A28DAE0F9A
:1003B000BF2FB11D5D968C91928D9F5F9F73928F21
:1003C00090E008958FEF9FEF0895FC01918D828D4D
:1003D000981731F0828DE80FF11D858D90E008951A
:1003E0008FEF9FEF0895FC01918D228D892F90E072
:1003F000805C9F4F821B91098F73992708958EED22
:1004000091E00E94F30121E0892B09F420E0822F82
:10041000089580E090E0892B29F00E94FF0181116E
:100420000C9400000895FC01A48DA80FB92FB11DF4
:10043000A35ABF4F2C91848D90E001968F7399271A
:10044000848FA689B7892C93A089B1898C918370F8
:1004500080648C93938D848D981306C00288F389F1
:10046000E02D80818F7D80830895EF92FF920F931E
:100470001F93CF93DF93EC0181E0888F9B8D8C8D50
:1004800098131AC0E889F989808185FF15C09FB744
:10049000F894EE89FF896083E889F9898081837007
:1004A000806480839FBF81E090E0DF91CF911F91B6
:1004B0000F91FF90EF900895F62E0B8D10E00F5FD7
:1004C0001F4F0F731127E02E8C8D8E110CC00FB6AD
:1004D00007FCFACFE889F989808185FFF5CFCE0145
:1004E0000E941302F1CFEB8DEC0FFD2FF11DE35AAB
:1004F000FF4FF0829FB7F8940B8FEA89FB898081C8
:100500008062CFCFCF93DF93EC01888D8823B9F041
:10051000AA89BB89E889F9898C9185FD03C080810E
:1005200086FD0DC00FB607FCF7CF8C9185FFF2CF8B
:10053000808185FFEDCFCE010E941302E9CFDF91CC
:10054000CF9108952091D2013091D3012817390716
:1005500071F49091D0018091D101981741F0E09110
:10056000D001F0E0E057FE4F808190E008958FEFDA
:100570009FEF08950895EF92FF920F931F93CF93EB
:10058000DF93DC015C96ED90FC905D97E114F10443
:1005900079F481E090E013969C938E93129790E00B
:1005A00080E0DF91CF911F910F91FF90EF90089520
:1005B0005196ED91FC91529750968C915097982FAF
:1005C00090950FB75E962C915E97122F127021FDB9
:1005D0006095F8942081112319F1282B2083E701DD
:1005E0002197F1F728E0462F50E0308160FF1AC0D4
:1005F000382B3083E7012197F1F7BA01759567959C
:10060000215089F7112381F08081892380830FBFD6
:100610005C968D919C910197F1F781E090E0C1CFBC
:100620002923DCCF3923E5CF9081892BEFCF20918F
:10063000D2013091D3012817390761F48091D1019B
:100640002091D00190E0805C9F4F821B91098F73B5
:100650009927089590E080E008952091D20130918B
:10066000D30128173907B9F49091D0018091D101B5
:10067000981789F0E091D001F0E0E057FE4F8081BB
:100680002091D00130E02F5F3F4F2F73332720930D
:10069000D00190E008958FEF9FEF089590E080E003
:1006A0000895FB0101900020E9F73197AF01461B47
:1006B000570BDC01ED91FC910280F381E02D099450
:1006C000CF93DF93BC018EED91E00E945103EC01CA
:1006D00064E271E08EED91E00E9451038C0F9D1F4A
:1006E000DF91CF9108951F920F920FB60F921124B0
:1006F0002F933F938F939F93AF93BF938091D60196
:100700009091D701A091D801B091D9013091D50134
:1007100023E0230F2D3758F50196A11DB11D20931D
:10072000D5018093D6019093D701A093D801B093BF
:10073000D9018091DA019091DB01A091DC01B091A7
:10074000DD010196A11DB11D8093DA019093DB01BB
:10075000A093DC01B093DD01BF91AF919F918F9188
:100760003F912F910F900FBE0F901F90189526E884
:10077000230F0296A11DB11DD2CF1F920F920FB66B
:100780000F9211242F933F934F935F936F937F9317
:100790008F939F93AF93BF93EF93FF938EED91E071
:1007A0000E941302FF91EF91BF91AF919F918F91A2
:1007B0007F916F915F914F913F912F910F900FBE5D
:1007C0000F901F9018951F920F920FB60F92112441
:1007D0002F938F939F93EF93FF93E091EE01F0910E
:1007E000EF018081E091F401F091F50182FD1BC0E1
:1007F00090818091F7018F5F8F732091F8018217AC
:1008000041F0E091F701F0E0E252FE4F958F8093C6
:10081000F701FF91EF919F918F912F910F900FBE54
:100820000F901F9018958081F4CF1F920F920FB6F2
:100830000F9211242F933F934F935F936F937F9366
:100840008F939F93AF93BF93EF93FF93E091D20168
:10085000F091D301309749F0A685B7858585968DAF
:1008600091FF14C09C918923A1F4FF91EF91BF9156
:10087000AF919F918F917F916F915F914F913F9138
:100880002F910F900FBE0F901F9018959C91892368
:1008900061F7A389B4899C918589809589238C937C
:1008A000868997890197F1F7608D718DA685B78547
:1008B000558538E020E0CB010197F1F7822F90E0D9
:1008C00095958795282F4C91452309F02068315044
:1008D00091F7868D81FD20958091D10190E0019660
:1008E0008F7399273091D001381799F0A091D101D9
:1008F000B0E0A057BE4F2C938093D101828D938D91
:100900000197F1F7A389B4898C919589892B8C93F0
:10091000ACCF868D8160868FF1CF1092E10110926D
:10092000E00188EE93E0A0E0B0E08093E2019093D4
:10093000E301A093E401B093E50124E031E03093BA
:10094000DF012093DE0125EC30E03093EB012093B2
:10095000EA0124EC30E03093ED012093EC0120EC2F
:1009600030E03093EF012093EE0121EC30E0309342
:10097000F1012093F00122EC30E03093F301209359
:10098000F20126EC30E03093F5012093F40110924F
:10099000F7011092F8011092F9011092FA011092E9
:1009A0007E0210927D0280937F0290938002A0933A
:1009B0008102B093820286E191E090937C02809361
:1009C0007B02109292021092910210929402109265
:1009D0009302109296021092950210929802109231
:1009E0009702609199026E7F6D7F60939902669580
:1009F000617081E068270E94DF0061E081E00E9471
:100A00000D01EFEAF0E0E491E0938B02EBE9F0E016
:100A1000E491F0E0EE0FFF1FE057FF4F85919491B6
:100A200090938D0280938C0260E080E00E940D0123
:100A30008091990281FD04C061E080E00E94DF00A6
:100A400010928702EEEAF0E0E491E0938802EAE98E
:100A5000F0E0E491F0E0EE0FFF1FEA57FF4F8591C1
:100A6000949190938A02809389020895789484B532
:100A7000826084BD84B5816084BD85B5826085BD9A
:100A800085B5816085BD80916E00816080936E0028
:100A9000109281008091810082608093810080911A
:100AA00081008160809381008091800081608093CB
:100AB00080008091B10084608093B1008091B0008B
:100AC00081608093B00080917A00846080937A0086
:100AD00080917A00826080937A0080917A008160B0
:100AE00080937A0080917A00806880937A001092D7
:100AF000C10060E087E00E940D0160E086E00E9496
:100B00000D0161E082E00E940D0161E083E00E943E
:100B10000D0110929602109295021092940210927A
:100B2000930210929202109291028DE991E09093BB
:100B300098028093970290918702963108F047C0FF
:100B40002DEB30E030939202209391022BE931E0BB
:100B500030939402209393022CE231E0309396027A
:100B6000209395022091680084E0983048F031E0AD
:100B70009E3008F430E081E001C0880F3A95EAF732
:100B8000822B809368002DE630E0983050F02BE601
:100B900030E09E3030F02CE630E0963110F030E05E
:100BA00020E030938F0220938E02292F30E098307E
:100BB00008F0DBC081E001C0880F9A95EAF78093C6
:100BC000900280919702909198020197F1F780919D
:100BD000950290919602892B49F1E091D201F09112
:100BE000D30182E0EB37F80709F1309739F0A38998
:100BF000B4899C918589809589238C9380919902F1
:100C00008E7F809399021092D1011092D0018BE7D0
:100C100092E09093D3018093D201E0918E02F09103
:100C20008F02808190919002892B8083E091EE0168
:100C3000F091EF0182E08083E091EA01F091EB0115
:100C40001082E091EC01F091ED018FEC8083109225
:100C5000F601E091F201F091F30186E08083E091EA
:100C6000F001F091F101808180618083E091F001D9
:100C7000F091F101808188608083E091F001F09132
:100C8000F101808180688083E091F001F091F101B1
:100C900080818F7D808368EE73E080E090E00E9429
:100CA000630100E010E087E00E94B600EC0181E003
:100CB000209709F480E08093D40186E00E94B6007A
:100CC000CD2B19F4892B09F444C087E291E00E94EE
:100CD000600361E082E00E94DF0061E083E00E9447
:100CE000DF0086E391E00E9460036AE471E08BE735
:100CF00092E00E94510364E670E080E090E00E9480
:100D0000630165E571E08BE792E00E94510364E6C0
:100D100070E080E090E00E9463016EE671E08BE796
:100D200092E00E94510364E670E080E090E00E944F
:100D3000630164E271E08BE792E00E94510381E875
:100D400091E00E94600364E670E080E090E00E9421
:100D500063010115110509F4A6CF0E94FF01882344
:100D600009F4A1CF0E9400009ECF9E3040F428508D
:100D7000310981E001C0880F2A95EAF720CF2E5073
:100D80003109F7CF86E191E090937C0280937B025A
:100D90008091D2019091D3018B57924071F4E091F0
:100DA0008E02F0918F02908180919002809589232C
:100DB00080831092D3011092D2010895EE0FFF1F8D
:100DC0000590F491E02D099410E0C2E6D0E004C053
:100DD000FE010E94DE062196C336D107C9F7F894BA
:100DE000FFCF0000000035029501C2018202F3012D
:100DF000D101E50100000000BB0295014E03BA02DB
:100E000017032D03A2020D0A004669726520416C8A
:100E1000657274212121210053656E64696E67201B
:100E20004C6F636174696F6E2E2E2E0041542B43FC
:100E30004D47463D310D0041542B434D47533D2214
:100E40002B323031303232353436303034220D00EE
:100E500053494D3830303120697320776F726B6998
:100E60006E67004C6F636174696F6E2053656E74BA
:020E70002E0052
:107E0000112484B714BE81FFF0D085E080938100F7
:107E100082E08093C00088E18093C10086E0809377
:107E2000C20080E18093C4008EE0C9D0259A86E02C
:107E300020E33CEF91E0309385002093840096BBD3
:107E4000B09BFECF1D9AA8958150A9F7CC24DD24C4
:107E500088248394B5E0AB2EA1E19A2EF3E0BF2EE7
:107E6000A2D0813461F49FD0082FAFD0023811F036
:107E7000013811F484E001C083E08DD089C08234E0
:107E800011F484E103C0853419F485E0A6D080C0E4
:107E9000853579F488D0E82EFF2485D0082F10E0AE
:107EA000102F00270E291F29000F111F8ED06801E7
:107EB0006FC0863521F484E090D080E0DECF843638
:107EC00009F040C070D06FD0082F6DD080E0C81688
:107ED00080E7D80618F4F601B7BEE895C0E0D1E017
:107EE00062D089930C17E1F7F0E0CF16F0E7DF06D8
:107EF00018F0F601B7BEE89568D007B600FCFDCFD4
:107F0000A601A0E0B1E02C9130E011968C91119780
:107F100090E0982F8827822B932B1296FA010C0160
:107F200087BEE89511244E5F5F4FF1E0A038BF0790
:107F300051F7F601A7BEE89507B600FCFDCF97BE46
:107F4000E89526C08437B1F42ED02DD0F82E2BD052
:107F50003CD0F601EF2C8F010F5F1F4F84911BD097
:107F6000EA94F801C1F70894C11CD11CFA94CF0C13
:107F7000D11C0EC0853739F428D08EE10CD085E9AC
:107F80000AD08FE07ACF813511F488E018D01DD067
:107F900080E101D065CF982F8091C00085FFFCCF94
:107FA0009093C60008958091C00087FFFCCF809118
:107FB000C00084FD01C0A8958091C6000895E0E648
:107FC000F0E098E1908380830895EDDF803219F02E
:107FD00088E0F5DFFFCF84E1DECF1F93182FE3DFCA
:107FE0001150E9F7F2DF1F91089580E0E8DFEE27F6
:047FF000FF270994CA
:027FFE00040479
:00000001FF
