:100000000C9462000C948A000C948A000C943E05B7
:100010000C943E050C943E050C948A000C948A00C6
:100020000C948A000C948A000C948A000C948A0028
:100030000C948A000C948A000C948A000C948A0018
:100040000C949C040C948A000C940C050C94E6040B
:100050000C948A000C948A000C948A000C948A00F8
:100060000C9448050C948A0000000000240027002E
:100070002A0000000000250028002B0000000000DE
:1000800023002600290004040404040404040202DA
:100090000202020203030303030301020408102007
:1000A0004080010204081020010204081020000012
:1000B0000008000201000003040700000000000027
:1000C0000000630611241FBECFEFD8E0DEBFCDBF16
:1000D00011E0A0E0B1E0EEE0F0E102C005900D9289
:1000E000AA36B107D9F722E0AAE6B1E001C01D9215
:1000F000AC39B207E1F710E0C2E6D0E004C02197C6
:10010000FE010E94FF07C136D107C9F70E94AD0664
:100110000C9405080C940000833081F028F48130A1
:1001200099F08230A9F008958730A9F08830C9F09D
:100130008430B1F4809180008F7D03C08091800075
:100140008F7780938000089584B58F7784BD08955C
:1001500084B58F7DFBCF8091B0008F778093B00006
:1001600008958091B0008F7DF9CFCF93DF93282F32
:1001700030E0F901E255FF4F8491F901E656FF4F57
:10018000D491F901EA57FF4FC491CC23A1F081111A
:100190000E948C00EC2FF0E0EE0FFF1FE458FF4FA1
:1001A000A591B491EC91ED2381E090E009F480E019
:1001B000DF91CF91089580E090E0FACF1F93CF9325
:1001C000DF93282F30E0F901E255FF4F8491F901C8
:1001D000E656FF4FD491F901EA57FF4FC491CC2363
:1001E000A9F0162F81110E948C00EC2FF0E0EE0F89
:1001F000FF1FEE58FF4FA591B4918FB7F894EC9183
:10020000111108C0D095DE23DC938FBFDF91CF9111
:100210001F910895DE2BF8CFCF93DF9390E0FC0180
:10022000E656FF4F24918A579F4FFC018491882303
:10023000D1F090E0880F991FFC01E859FF4FA5917C
:10024000B491FC01EE58FF4FC591D49161110EC0DD
:100250009FB7F8948C91E22FE0958E238C932881A0
:10026000E223E8839FBFDF91CF9108958FB7F89481
:10027000EC91E22BEC938FBFF6CF3FB7F8948091CF
:10028000E3019091E401A091E501B091E60126B56A
:10029000A89B05C02F3F19F00196A11DB11D3FBFBE
:1002A000BA2FA92F982F8827BC01CD01620F711D8D
:1002B000811D911D42E0660F771F881F991F4A9587
:1002C000D1F70895AF92BF92CF92DF92EF92FF9253
:1002D0000F931F93CF93DF936C017B018B01040F6E
:1002E000151FEB015E01AE18BF08C017D10759F00A
:1002F0006991D601ED91FC910190F081E02DC6014C
:100300000995892B79F7C501DF91CF911F910F9145
:10031000FF90EF90DF90CF90BF90AF900895FC01D9
:10032000538D448D252F30E0842F90E0821B930B5A
:10033000541710F0CF96089501970895FC01918D00
:10034000828D981761F0A28DAE0FBF2FB11D5D9603
:100350008C91928D9F5F9F73928F90E008958FEFA5
:100360009FEF0895FC01918D828D981731F0828D59
:10037000E80FF11D858D90E008958FEF9FEF0895B0
:10038000FC01918D228D892F90E0805C9F4F821B14
:1003900091098F739927089587EE91E00E94C0011B
:1003A00021E0892B09F420E0822F089580E090E07D
:1003B000892B29F00E94CC0181110C940000089532
:1003C000FC01A48DA80FB92FB11DA35ABF4F2C91CA
:1003D000848D90E001968F739927848FA689B789C1
:1003E0002C93A089B1898C91837080648C93938DB8
:1003F000848D981306C00288F389E02D80818F7D5B
:1004000080830895EF92FF920F931F93CF93DF9312
:10041000EC0181E0888F9B8D8C8D98131AC0E88940
:10042000F989808185FF15C09FB7F894EE89FF890F
:100430006083E889F98980818370806480839FBFAD
:1004400081E090E0DF91CF911F910F91FF90EF90AD
:100450000895F62E0B8D10E00F5F1F4F0F731127BD
:10046000E02E8C8D8E110CC00FB607FCFACFE889F8
:10047000F989808185FFF5CFCE010E94E001F1CF9F
:10048000EB8DEC0FFD2FF11DE35AFF4FF0829FB76C
:10049000F8940B8FEA89FB8980818062CFCFCF935C
:1004A000DF93EC01888D8823B9F0AA89BB89E8899C
:1004B000F9898C9185FD03C0808186FD0DC00FB642
:1004C00007FCF7CF8C9185FFF2CF808185FFEDCFC0
:1004D000CE010E94E001E9CFDF91CF910895089508
:1004E00020919101260F3327331F21323105ECF47F
:1004F0002091B501FC0190E080E0243069F082E0B9
:100500000895A09191012191AC014F585E4FA40F25
:10051000B52FB11D2C930196861798F38091910108
:10052000680F6093910180E0089581E00895089537
:100530008FEF9FEF08958FEF9FEF089580916A01ED
:1005400090E09195819591090895CF93DF93CB0128
:10055000EA01642F0E947002CE01DF91CF910895CD
:10056000CF93DF931F92CDB7DEB7698361E0CE01F1
:1005700001960E94700281E090E00F90DF91CF9190
:10058000089590E080E00895FC0101900020E9F7D3
:100590003197AF01481B590BBC0184E892E00C94E1
:1005A0006201CF93DF93EC0160E08E810E94DE0058
:1005B00061E08E810E94DE0060E08E810E94DE009C
:1005C0008BE891E00197F1F7DF91CF910895CF92F9
:1005D000DF92EF92FF920F931F93CF93DF936C0103
:1005E0007C0187E0E80EF11CD0E0C0E0062F10E0AF
:1005F000B8010C2E02C0759567950A94E2F76170F8
:10060000F70181917F010E94DE002196C430D1055F
:1006100079F7C601DF91CF911F910F91FF90EF9075
:10062000DF90CF900C94D102CF92DF92EF92FF92A5
:100630000F931F93CF93DF93EC01F62E642F8C81E1
:100640000E94DE008D818F3F19F060E00E94DE0085
:100650000F2D10E08F8584FF25C06E0187E0C80E46
:10066000D11CF12CE12CB8010E2C02C075956795B8
:100670000A94E2F76170F60181916F010E94DE0039
:10068000FFEFEF1AFF0A88E0E816F10461F7CE01E8
:10069000DF91CF911F910F91FF90EF90DF90CF905E
:1006A0000C94D102B80184E0759567958A95E1F7BD
:1006B000CE010E94E7026F2DCE01DF91CF911F91F5
:1006C0000F91FF90EF90DF90CF900C94E70240E005
:1006D000682F84E892E00C941403CF93DF93823068
:1006E00029F49091930298609093930280939702DB
:1006F0001092980280E48093990280E180939A029C
:1007000080E580939B0261E0809188020E940C0149
:10071000809189028F3F19F061E00E940C0161E035
:1007200080918A020E940C01C4E8D2E09E01245804
:1007300032408091930284FD0BC084E090E02196CA
:100740002817390744F461E08E810E940C01EECF36
:1007500088E090E0F4CF8BE39DE00197F1F760E053
:10076000809188020E94DE0060E080918A020E94EF
:10077000DE00809189028F3F19F060E00E94DE0068
:100780008091930284FD39C063E084E892E00E9486
:10079000E702CBE4D6E4CE010197F1F763E084E809
:1007A00092E00E94E7022197F1F763E084E892E08B
:1007B0000E94E70283E592E00197F1F762E084E8A6
:1007C00092E00E94E7028091930280620E94670398
:1007D00084E0809394028CE00E94670381E00E9491
:1007E00067038BE39FE10197F1F782E08093950225
:1007F00086E0DF91CF910C94670380620E946703CB
:100800008BE496E40197F1F78091930280620E9455
:10081000670383E592E00197F1F78091930280628C
:100820000E946703D0CF90919702891710F08FEF45
:10083000890FE82FF0E0EC57FD4F848980680C9415
:10084000670341E00E94140381E090E008951F9344
:10085000CF93DF9385ED8093BC0080916D019091E3
:100860006E01A0916F01B09170010796A11DB11D9D
:1008700023E0B695A795979587952A95D1F720916E
:10088000BC0024FD03C01092B50152C040916D011F
:1008900050916E0160916F0170917001452B462B54
:1008A000472B69F30097A105B10541F02AE22A958B
:1008B000F1F700C00197A109B109E1CF80916C0166
:1008C000C1E0C0936B01882399F1D091B8001091D9
:1008D000BA008091BC008A7B8093BC0060E082E11A
:1008E0000E94DE0060E083E10E94DE001092B5010C
:1008F000C093B7011092B60161E082E10E94DE0070
:1009000061E083E10E94DE008091B9008E7F8093D8
:10091000B9008091B9008D7F8093B90088E48093FD
:10092000B80085E48093BC001093BA00D093B8005F
:10093000DF91CF911F9108951F920F920FB60F92E2
:1009400011242F933F938F939F93AF93BF938091E5
:10095000DF019091E001A091E101B091E2013091BD
:10096000DE0123E0230F2D3758F50196A11DB11D9F
:100970002093DE018093DF019093E001A093E101D9
:10098000B093E2018091E3019091E401A091E5012F
:10099000B091E6010196A11DB11D8093E3019093F2
:1009A000E401A093E501B093E601BF91AF919F915F
:1009B0008F913F912F910F900FBE0F901F90189520
:1009C00026E8230F0296A11DB11DD2CF1F920F92D0
:1009D0000FB60F9211242F933F934F935F936F9312
:1009E0007F938F939F93AF93BF93EF93FF9387EE84
:1009F00091E00E94E001FF91EF91BF91AF919F9133
:100A00008F917F916F915F914F913F912F910F90B7
:100A10000FBE0F901F9018951F920F920FB60F9256
:100A200011242F938F939F93EF93FF93E091F701FE
:100A3000F091F8018081E091FD01F091FE0182FDCD
:100A40001BC09081809100028F5F8F732091010203
:100A5000821741F0E0910002F0E0E951FE4F958FDE
:100A600080930002FF91EF919F918F912F910F90B2
:100A70000FBE0F901F9018958081F4CF1F920F9298
:100A80000FB60F9211240F900FBE0F901F90189564
:100A90001F920F920FB60F9211242F933F934F93F3
:100AA0005F936F937F938F939F93AF93BF93EF93D6
:100AB000FF938091B900887F803609F44AC0F0F531
:100AC000883209F4A5C018F5803109F499C0B8F44A
:100AD000882309F4F5C0883009F492C0FF91EF91A2
:100AE000BF91AF919F918F917F916F915F914F9146
:100AF0003F912F910F900FBE0F901F901895883146
:100B000009F486C0803251F78093B40114C0803458
:100B100009F49BC040F48033B9F38833F9F680932D
:100B2000B40185ECAEC0803509F483C0883509F482
:100B300094C0883499F60E942704D0CF883909F4EC
:100B40008AC038F5883729F050F4883611F080379C
:100B500029F683E08093B5011092B30155C088381F
:100B600009F479C0803919F0803809F0B7CF809145
:100B7000B301803208F06FC0E091B30181E08E0FC5
:100B80008093B3018091BB00F0E0ED56FE4F80836F
:100B90003BC0803B39F0D0F4803A09F477C0883A02
:100BA00009F09CCF84E08093B501109292011092DD
:100BB0009101F0E0E0E009958091910181110FC071
:100BC00081E0809391011092710109C0803C09F489
:100BD000A8CF883C09F4A5CF883B09F07FCFE091EE
:100BE000920181E08E0F80939201F0E0EF58FE4F6A
:100BF00080818093BB00909192018091910129C0E6
:100C00008091DA018093BB0085EC8093BC0066CFB5
:100C10009091D9018091D801981758F5E091D901A8
:100C200081E08E0F8093D901F0E0E854FE4F80817F
:100C3000E9CFE091D90181E08E0F8093D9018091B5
:100C4000BB00F0E0E854FE4F80839091D901809181
:100C5000D8019817C8F285E8D8CFE091D90181E092
:100C60008E0F8093D9018091BB00F0E0E854FE4FD5
:100C700080838091B70181115ECF81E08093B601BE
:100C800084EA8093BC001092B50128CF85EC809354
:100C9000BC001092B5018091B301803230F4E09134
:100CA000B301F0E0ED56FE4F10826091B30170E0A9
:100CB00083E991E0F0E0E0E009951092B3010ECFF6
:100CC0001092B40138CFE7EEF1E01382128288EE81
:100CD00093E0A0E0B0E084839583A683B78384E0AB
:100CE00091E09183808385EC90E09587848784EC04
:100CF00090E09787868780EC90E0918B808B81ECE9
:100D000090E0938B828B82EC90E0958B848B86ECC9
:100D100090E0978B868B118E128E138E148EE4E8E2
:100D2000F2E01382128286E191E09183808387E072
:100D300084838FEF858388E0868383E0878384E0E4
:100D4000808785E0818786E08287138614861586F2
:100D50001686178681E00C946D03789484B58260C2
:100D600084BD84B5816084BD85B5826085BD85B54F
:100D7000816085BD80916E00816080936E001092CD
:100D80008100809181008260809381008091810048
:100D900081608093810080918000816080938000D9
:100DA0008091B10084608093B1008091B000816037
:100DB0008093B00080917A00846080937A00809163
:100DC0007A00826080937A0080917A0081608093BB
:100DD0007A0080917A00806880937A001092C10036
:100DE00060E082E00E940C0160E089E00E940C015A
:100DF00061E08BE00E940C0161E08AE00E940C013E
:100E000061E08EE00E940C0161E08FE00E940C0125
:100E100061E080E10E940C0161E08CE00E940C0125
:100E200061E08CE00E94DE0061E08EE00E94DE0066
:100E300082E00E946D038EE191E00E94C402E09185
:100E4000F701F091F80182E08083E091F301F091E5
:100E5000F4011082E091F501F091F6018FEC8083AE
:100E60001092FF01E091FB01F091FC0186E080838C
:100E7000E091F901F091FA01808180618083E09135
:100E8000F901F091FA01808188608083E091F90195
:100E9000F091FA01808180688083E091F901F091FE
:100EA000FA0180818F7D80830BE31FE1C0E0D0E0F9
:100EB00082E00E94B5007C0181E0E114F10409F4B4
:100EC00080E08093DD0189E00E94B500EF2879F190
:100ED00061E08BE00E94DE0061E08AE00E94DE00BB
:100EE00060E08CE00E94DE0060E08EE00E94DE00A8
:100EF00061E08FE00E94DE0061E080E10E94DE00A0
:100F000080E00E9413048CE291E00E94C40281E020
:100F10000E9413048BE391E00E94C402209741F2E7
:100F20000E94CC01882321F20E940000C1CF892BAE
:100F3000E9F061E08BE00E94DE0061E08AE00E945F
:100F4000DE0060E08EE00E94DE0061E080E10E9451
:100F5000DE0080E00E9413048CE291E00E94C40253
:100F600081E00E9413048CE491E0D6CF0E943D0101
:100F70004B015C0184EFC82EDD24D394E12CF12CCD
:100F80000E943D01681979098A099B09683E7340EE
:100F900081059105A8F321E0C21AD108E108F10802
:100FA00088EE880E83E0981EA11CB11CC114D104E8
:100FB000E104F10429F760E08BE00E94DE0060E0CC
:100FC0008AE00E94DE0061E08CE00E94DE0061E0C9
:100FD0008EE00E94DE0060E08FE00E94DE0060E0B4
:100FE00080E10E94DE0081E00E946703C801019752
:100FF000F1F780E00E9413048BE591E08DCFEE0FB6
:0E100000FF1F0590F491E02D0994F894FFCFA6
:10100E0000000000020262018F014F02C0019E012A
:10101E00B2010000000021046201C1026F02497496
:10102E00277320416C6C20676F6F64004669726590
:10103E0020416C6572742121212100466C616D6521
:10104E0020446574656374656421210047617320D3
:10105E0044657465637465642121004974277320A7
:0A106E00616C6C20676F6F64000076
:00000001FF
