:100000000C9448010C9479010C9479010C947901B9
:100010000C9479010C9479010C9479010C94790178
:100020000C9479010C9466070C9466070C9466078F
:100030000C9479010C9479010C9479010C94790158
:100040000C9479010C9479010C9479010C94790148
:100050000C9479010C9479010C9479010C94BC06F0
:100060000C9479010C9430070C9406070C947901D8
:100070000C9479010C9479010C9479010C94790118
:100080000C9479010C9479010C9479010C94790108
:100090000C9479010C9479010C9479010C94E20789
:1000A0000C9479010C9479010C9479010C947901E8
:1000B0000C9479010C9479010C9479010C947901D8
:1000C0000C9479010C9479010C9479010C947901C8
:1000D0000C9479010C9479010C9479010C947901B8
:1000E0000C9479010C94C2010C94DA010C94C601B1
:1000F0000C94D0010C94CC010C949B040C94B80388
:100100000C94BA020C94A7010C9414040C94A3014F
:100110000C94C8020C94BE010C94D4010C949E0360
:100120000C944D030C949F030C945E0C0C94B70339
:100130000C94DE010C9400030C94B4010C9499010E
:100140000C9402090C94AB010C946A020C94970273
:100150000C94AE010C94D9010C949F010C94B8013D
:100160000C94EE050C942A040C94A60200002100C5
:10017000240027002A002D00300033000101000078
:10018000040107010A0100000A0B02090C0D0E0808
:100190000703040100000000000000000000000050
:1001A000000000000000000000000000000000004F
:1001B000000012111000000000000000000000000C
:1001C000000000000000000000000000000020000F
:1001D0002300260029002C002F003200000100001F
:1001E00003010601090100002200250028002B0060
:1001F0002E003100340002010000050108010B014E
:1002000005050505070508080808020202020A0A92
:1002100008080404040401010101010101010303B0
:10022000030303030303040707070C0C0C0C0C0C5B
:100230000C0C0202020206060606060606060B0B58
:100240000B0B0B0B0B0B0102102020080810204099
:10025000102040800201020108040201010204088A
:100260001020408080402010080402018004020118
:100270008040201008040201080402010102040861
:1002800010204080010204081020408002095E0C0A
:1002900011241FBECFEFD1E2DEBFCDBF00E00CBF07
:1002A00012E0A0E0B2E0E8E2F9E100E00BBF02C03A
:1002B00007900D92AE3CB107D9F724E0AEECB2E066
:1002C00001C01D92A936B207E1F711E0C7E4D1E001
:1002D00000E006C021970109802FFE010E947A0CE0
:1002E000C634D10780E00807A9F70E94E1090C9401
:1002F000820C0C9400008150823108F05AC0E82F23
:10030000F0E08827E957FE4F8F4F0C947A0CA70135
:10031000AB0199019F01A301D901AE01B401B8015C
:10032000BE01C201C601CC01D001D901D401DA015C
:10033000DE01809180008F77809380000895809106
:1003400080008F7DF9CF80918000877FF5CF84B5C5
:100350008F7784BD089584B58F7DFBCF8091B000E9
:100360008F778093B00008958091B0008F7DF9CF92
:10037000809190008F7780939000089580919000F5
:100380008F7DF9CF80919000877FF5CF8091A0007D
:100390008F778093A00008958091A0008F7DF9CF82
:1003A0008091A000877FF5CF809120018F77809387
:1003B00020010895809120018F7DF9CF8091200147
:1003C000877FF5CFCF93DF93282F30E0F901EA57ED
:1003D000FE4F8491F901EA5BFD4FD491F901E050A1
:1003E000FE4FC491CC23A1F081110E947B01EC2F20
:1003F000F0E0EE0FFF1FE453FE4FA591B491EC9196
:10040000ED2381E090E009F480E0DF91CF91089541
:1004100080E090E0FACF1F93CF93DF93282F30E056
:10042000F901EA57FE4F8491F901EA5BFD4FD4913F
:10043000F901E050FE4FC491CC23A9F0162F811191
:100440000E947B01EC2FF0E0EE0FFF1FEA51FE4F00
:10045000A591B4918FB7F894EC91111108C0D09583
:10046000DE23DC938FBFDF91CF911F910895DE2BA8
:10047000F8CFCF93DF9390E0FC01EA5BFD4F24912E
:1004800080509E4FFC0184918823D1F090E0880F2A
:10049000991FFC01E459FE4FA591B491FC01EA516A
:1004A000FE4FC591D49161110EC09FB7F8948C9105
:1004B000E22FE0958E238C932881E223E8839FBF6F
:1004C000DF91CF9108958FB7F894EC91E22BEC93E4
:1004D0008FBFF6CFAF92BF92CF92DF92EF92FF9293
:1004E0000F931F93CF93DF936C017B018B01040F5C
:1004F000151FEB015E01AE18BF08C017D10759F0F8
:100500006991D601ED91FC910190F081E02DC60139
:100510001995892B79F7C501DF91CF911F910F9123
:10052000FF90EF90DF90CF90BF90AF900895FC01C7
:10053000538D448D252F30E0842F90E0821B930B48
:10054000541710F0CF96089501970895FC01918DEE
:10055000828D981761F0A28DAE0FBF2FB11D5D96F1
:100560008C91928D9F5F9F73928F90E008958FEF93
:100570009FEF0895FC01918D828D981731F0828D47
:10058000E80FF11D858D90E008958FEF9FEF08959E
:10059000FC01918D228D892F90E0805C9F4F821B02
:1005A00091098F739927089585E993E00E94C80205
:1005B00021E0892B09F420E0822F0895FC01A48D0D
:1005C000A80FB92FB11DA35ABF4F2C91848D90E075
:1005D00001968F739927848FA689B7892C93A08958
:1005E000B1898C91837080648C93938D848D9813E2
:1005F00006C00288F389E02D80818F7D8083089575
:10060000EF92FF920F931F93CF93DF93EC0181E062
:10061000888F9B8D8C8D98131AC0E889F989808109
:1006200085FF15C09FB7F894EE89FF896083E8893C
:10063000F98980818370806480839FBF81E090E02E
:10064000DF91CF911F910F91FF90EF900895F62EBB
:100650000B8D10E00F5F1F4F0F731127E02E8C8D55
:100660008E110CC00FB607FCFACFE889F98980819A
:1006700085FFF5CFCE010E94DE02F1CFEB8DEC0FAE
:10068000FD2FF11DE35AFF4FF0829FB7F8940B8FB7
:10069000EA89FB8980818062CFCFCF93DF93EC0121
:1006A000888D8823B9F0AA89BB89E889F9898C915A
:1006B00085FD03C0808186FD0DC00FB607FCF7CF16
:1006C0008C9185FFF2CF808185FFEDCFCE010E9416
:1006D000DE02E9CFDF91CF91089580E090E0892B91
:1006E00029F00E94D40281110E94000080E090E075
:1006F000892B49F080E090E0892B29F00E940000CE
:1007000081110E94000080E090E0892B49F080E098
:1007100090E0892B29F00E94000081110E940000C6
:1007200080E090E0892B49F080E090E0892B29F06F
:100730000E94000081110C940000089508952091FA
:100740008103309182032817390771F490917F0358
:1007500080918003981741F0E0917F03F0E0E15C25
:10076000FC4F808190E008958FEF9FEF08950895EA
:10077000EF92FF920F931F93CF93DF93DC015C9670
:10078000ED90FC905D97E114F10479F481E090E044
:1007900013969C938E93129790E080E0DF91CF9117
:1007A0001F910F91FF90EF9008955196ED91FC915C
:1007B000529750968C915097982F90950FB75E96C0
:1007C0002C915E97122F127021FD6095F894208174
:1007D000112319F1282B2083E7012197F1F728E055
:1007E000462F50E0308160FF1AC0382B3083E7017C
:1007F0002197F1F7BA0175956795215089F7112373
:1008000081F08081892380830FBF5C968D919C91BC
:100810000197F1F781E090E0C1CF2923DCCF3923A4
:10082000E5CF9081892BEFCF209181033091820316
:100830002817390761F48091800320917F0390E0AD
:10084000805C9F4F821B91098F739927089590E0D8
:1008500080E00895209181033091820328173907A1
:10086000B9F490917F0380918003981789F0E0910B
:100870007F03F0E0E15CFC4F808120917F0330E05A
:100880002F5F3F4F2F73332720937F0390E008950E
:100890008FEF9FEF08952091F502260F3327331F26
:1008A00021323105ECF420911903FC0190E080E045
:1008B000243069F082E00895A091F5022191AC0105
:1008C0004B525D4FA40FB52FB11D2C930196861787
:1008D00098F38091F502680F6093F50280E0089527
:1008E00081E008958FEF9FEF08958FEF9FEF0895B8
:1008F0008091CE0290E09195819591090895CF93D2
:10090000DF93CB01EA01642F0E944B04CE01DF91FB
:10091000CF910895CF93DF931F92CDB7DEB7698350
:1009200061E0CE0101960E944B0481E090E00F90BF
:10093000DF91CF91089590E080E00895CF93DF9309
:10094000EC0160E08E810E940B0261E08E810E94CA
:100950000B0260E08E810E940B028BE891E0019710
:10096000F1F7DF91CF910895CF92DF92EF92FF924E
:100970000F931F93CF93DF936C017C0187E0E80E08
:10098000F11CD0E0C0E0062F10E0B8010C2E02C030
:10099000759567950A94E2F76170F70181917F017F
:1009A0000E940B022196C430D10579F7C601DF9170
:1009B000CF911F910F91FF90EF90DF90CF900C940B
:1009C0009E04CF92DF92EF92FF920F931F93CF93EB
:1009D000DF93EC01F62E642F8C810E940B028D8137
:1009E0008F3F19F060E00E940B020F2D10E08F8501
:1009F00084FF25C06E0187E0C80ED11CF12CE12CCC
:100A0000B8010E2C02C0759567950A94E2F76170E3
:100A1000F60181916F010E940B02FFEFEF1AFF0AAE
:100A200088E0E816F10461F7CE01DF91CF911F91C4
:100A30000F91FF90EF90DF90CF900C949E04B8013F
:100A400084E0759567958A95E1F7CE010E94B4041C
:100A50006F2DCE01DF91CF911F910F91FF90EF90FD
:100A6000DF90CF900C94B40440E0682F81E594E0CF
:100A70000C94E104CF93DF93823029F490916004C9
:100A8000986090936004809364041092650480E4FD
:100A90008093660480E18093670480E58093680416
:100AA00061E0809155040E943902809156048F3F85
:100AB00019F061E00E94390261E0809157040E94C0
:100AC0003902C1E5D4E09E01215534408091600493
:100AD00084FD0BC084E090E021962817390744F488
:100AE00061E08E810E943902EECF88E090E0F4CF81
:100AF0008BE39DE00197F1F760E0809155040E943F
:100B00000B0260E0809157040E940B028091560412
:100B10008F3F19F060E00E940B028091600484FD19
:100B200039C063E081E594E00E94B404CBE4D6E4EC
:100B3000CE010197F1F763E081E594E00E94B404EF
:100B40002197F1F763E081E594E00E94B40483E526
:100B500092E00197F1F762E081E594E00E94B4042D
:100B60008091600480620E94340584E08093610477
:100B70008CE00E94340581E00E9434058BE39FE104
:100B80000197F1F782E08093620486E0DF91CF91D4
:100B90000C94340580620E9434058BE496E401973E
:100BA000F1F78091600480620E94340583E592E051
:100BB0000197F1F78091600480620E943405D0CFE4
:100BC00090916404891710F08FEF890FE82FF0E0FF
:100BD000EF5AFB4F848980680C94340541E00E94F1
:100BE000E10481E090E00895FB0101900020E9F725
:100BF0003197AF01461B570BDC01ED91FC91028050
:100C0000F381E02D199460E372E085E993E00E949E
:100C1000F40564E472E085E993E00E94F40567E47A
:100C200072E082E394E00E94F40562E572E082E300
:100C300094E00E94F40561E672E082E394E00E9491
:100C4000F40564E472E082E394E00E94F40564E752
:100C500072E085E993E00E94F40564E472E085E9BE
:100C600093E00E94F4052FB7F8948091910390913E
:100C70009203A0919303B09194032FBF80938703B5
:100C800090938803A0938903B0938A0308951F93D8
:100C9000CF93DF9385ED8093BC008091D10290913A
:100CA000D202A091D302B091D4020796A11DB11D2A
:100CB00023E0B695A795979587952A95D1F720912A
:100CC000BC0024FD03C01092190352C04091D10210
:100CD0005091D2026091D3027091D402452B462BE1
:100CE000472B69F30097A105B10541F02AE22A9547
:100CF000F1F700C00197A109B109E1CF8091D002BD
:100D0000C1E0C093CF02882399F1D091B80010912F
:100D1000BA008091BC008A7B8093BC0060E084E1D3
:100D20000E940B0260E085E10E940B021092190301
:100D3000C0931B0310921A0361E084E10E940B022E
:100D400061E085E10E940B028091B9008E7F809363
:100D5000B9008091B9008D7F8093B90088E48093B9
:100D6000B80085E48093BC001093BA00D093B8001B
:100D7000DF91CF911F9108951F920F920FB60F929E
:100D800011242F933F938F939F93AF93BF938091A1
:100D9000910390919203A0919303B09194033091A9
:100DA000900323E0230F2D3758F50196A11DB11DA7
:100DB000209390038093910390939203A0939303C5
:100DC000B093940380918C0390918D03A0918E0336
:100DD000B0918F030196A11DB11D80938C03909358
:100DE0008D03A0938E03B0938F03BF91AF919F911A
:100DF0008F913F912F910F900FBE0F901F901895DC
:100E000026E8230F0296A11DB11DD2CF1F920F928B
:100E10000FB60F9211240BB60F922F933F934F935F
:100E20005F936F937F938F939F93AF93BF93EF9352
:100E3000FF9385E993E00E94DE02FF91EF91BF915D
:100E4000AF919F918F917F916F915F914F913F9162
:100E50002F910F900BBE0F900FBE0F901F90189503
:100E60001F920F920FB60F9211240BB60F922F9371
:100E70008F939F93EF93FF93E091A503F091A603C7
:100E80008081E091AB03F091AC0382FD1DC09081A5
:100E90008091AE038F5F8F732091AF03821741F073
:100EA000E091AE03F0E0EB56FC4F958F8093AE03DC
:100EB000FF91EF919F918F912F910F900BBE0F900B
:100EC0000FBE0F901F9018958081F2CF1F920F9246
:100ED0000FB60F9211240BB60F922F933F934F939F
:100EE0005F936F937F938F939F93AF93BF93EF9392
:100EF000FF93E0918103F0918203309749F0A6853A
:100F0000B7858585968D91FF16C09C918923B1F494
:100F1000FF91EF91BF91AF919F918F917F916F91D1
:100F20005F914F913F912F910F900BBE0F900FBE8D
:100F30000F901F9018959C91892351F7A389B4892C
:100F40009C918589809589238C93868997890197BF
:100F5000F1F7608D718DA685B785558538E020E065
:100F6000CB010197F1F7822F90E095958795282F77
:100F70004C91452309F02068315091F7868D81FD11
:100F800020958091800390E001968F73992730918E
:100F90007F03381799F0A0918003B0E0A15CBC4FAB
:100FA0002C9380938003828D938D0197F1F7A38911
:100FB000B4898C919589892B8C93AACF868D816079
:100FC000868FF1CF1F920F920FB60F9211240BB69E
:100FD0000F922F933F934F935F936F937F938F93D2
:100FE0009F93AF93BF93EF93FF938091B900887F56
:100FF000803609F44DC008F040C0883209F4A7C01B
:1010000028F5803109F49BC0C8F4882309F4F7C09F
:10101000883009F494C0FF91EF91BF91AF919F91F7
:101020008F917F916F915F914F913F912F910F9091
:101030000BBE0F900FBE0F901F901895883109F4CA
:1010400086C0803241F78093180314C0803409F4BD
:101050009BC040F48033B9F38833E9F680931803DA
:1010600085ECAEC0803509F483C0883509F494C09E
:10107000883489F60E944706CECF883909F48AC0A1
:1010800038F5883729F050F4883611F0803719F692
:1010900083E0809319031092170355C0883809F430
:1010A00079C0803919F0803809F0B5CF80911703E5
:1010B000803208F06FC0E091170381E08E0F8093BB
:1010C00017038091BB00F0E0E950FD4F80833BC0E7
:1010D000803B39F0D0F4803A09F477C0883A09F0BF
:1010E0009ACF84E0809319031092F6021092F502D1
:1010F000F0E0E0E019958091F50281110FC081E0E8
:101100008093F5021092D50209C0803C09F4A8CF63
:10111000883C09F4A5CF883B09F07DCFE091F60229
:1011200081E08E0F8093F602F0E0EB52FD4F80815C
:101130008093BB009091F6028091F50229C08091C6
:101140003E038093BB0085EC8093BC0064CF9091FC
:101150003D0380913C03981758F5E0913D0381E0F1
:101160008E0F80933D03F0E0E45EFC4F8081E9CF79
:10117000E0913D0381E08E0F80933D038091BB00A1
:10118000F0E0E45EFC4F808390913D0380913C034E
:101190009817C8F285E8D8CFE0913D0381E08E0F23
:1011A00080933D038091BB00F0E0E45EFC4F8083C0
:1011B00080911B0381115ECF81E080931A0384EA42
:1011C0008093BC001092190326CF85EC8093BC005D
:1011D0001092190380911703803230F4E0911703C5
:1011E000F0E0E950FD4F10826091170370E087EF47
:1011F00092E0F0E0E0E01995109217030CCF109206
:10120000180338CFCF92DF92EF92FF92109298039B
:101210001092970398EEC92E93E0D92EE12CF12C71
:10122000C0929903D0929A03E0929B03F0929C03A0
:1012300084E092E0909396038093950385EC90E090
:101240009093A2038093A10384EC90E09093A40375
:101250008093A30380EC90E09093A6038093A50372
:1012600081EC90E09093A8038093A70382EC90E038
:101270009093AA038093A90386EC90E09093AC032B
:101280008093AB031092AE031092AF031092B003A1
:101290001092B103109254041092530488E292E029
:1012A000909352048093510485E3809355048FEF0B
:1012B0008093560484E38093570483E38093580417
:1012C00082E38093590481E380935A0480E38093FE
:1012D0005B0410925C0410925D0410925E04109204
:1012E0005F041092600481E00E943A051092350478
:1012F00010923404C0923604D0923704E09238043D
:10130000F092390486E192E09093330480933204A2
:10131000109249041092480410924B0410924A040F
:1013200010924D0410924C0410924F0410924E04EF
:10133000609150046E7F6D7F60935004669561707C
:1013400081E068270E940B0261E081E00E9439027F
:10135000E7E4F2E0E491E0934204E1E0F2E0E491BA
:10136000F0E0EE0FFF1FEA51FE4F859194919093AC
:1013700044048093430460E080E00E94390280913D
:10138000500481FD04C061E080E00E940B021092D5
:101390003E04E6E4F2E0E491E0933F04E0E0F2E0B2
:1013A000E491F0E0EE0FFF1FE453FE4F859194911E
:1013B0009093410480934004FF90EF90DF90CF9092
:1013C0000895789484B5826084BD84B5816084BDBD
:1013D00085B5826085BD85B5816085BD80916E00D3
:1013E000816080936E001092810080918100826004
:1013F0008093810080918100816080938100809141
:1014000080008160809380008091B100846080932F
:10141000B1008091B00081608093B0008091910014
:10142000826080939100809191008160809391000F
:10143000809190008160809390008091A1008260F3
:101440008093A1008091A10081608093A100809190
:10145000A00081608093A000809121018260809330
:1014600021018091210181608093210180912001DF
:1014700081608093200180917A00846080937A005B
:1014800080917A00826080937A0080917A008160F6
:1014900080937A0080917A00806880937A0010921D
:1014A000C10060E087E10E94390260E086E10E94AD
:1014B000390261E089E10E94390261E088E10E941D
:1014C000390261E08AE10E94390261E08BE10E9409
:1014D000390261E08CE10E94390261E08DE10E94F5
:1014E000390261E08DE10E940B0261E08AE10E9415
:1014F0000B0282E00E943A0563E872E081E594E025
:101500000E94F40510924D0410924C0410924B046A
:1015100010924A0410924904109248048DE991E017
:1015200090934F0480934E0480913E0496EF980F61
:10153000943048F02EEC280F243028F022EC280FAD
:10154000283008F061C02DEB30E03093490420933F
:1015500048042BE931E030934B0420934A042CE2F9
:1015600031E030934D0420934C04943050F02EEC35
:10157000280F243030F022EC280FF0E0E0E0283093
:1015800010F4E8E6F0E02081943028F032EC380FD7
:10159000383008F4EBC031E0232B943048F09EEC57
:1015A000980F943028F08E53F0E0E0E0883010F48B
:1015B000E8E6F0E0208320913E0436EF320F34302D
:1015C00008F4D6C08EEC820F843008F4D1C082ECCF
:1015D000820F883008F4CFC090E080E090934604FA
:1015E00080934504343008F0C9C02650330B81E0A5
:1015F00001C0880F2A95EAF78093470480914E0432
:1016000090914F040197F1F780914C0490914D0413
:10161000892B49F1E0918103F091820324E0E233C8
:10162000F20709F1309739F0A389B4899C91858933
:10163000809589238C93809150048E7F80935004F1
:101640001092800310927F0382E394E090938203D0
:1016500080938103E0914504F0914604808190914C
:101660004704892B8083E091A503F091A60382E0D3
:101670008083E091A103F091A2031082E091A30383
:10168000F091A4038FEC80831092AD03E091A90345
:10169000F091AA0386E08083E091A703F091A8036C
:1016A000808180618083E091A703F091A80380810D
:1016B00088608083E091A703F091A803808180680F
:1016C0008083E091A703F091A80380818F7D8083C0
:1016D000CBE3DFE187E10E94E2018C0181E00115AB
:1016E000110509F480E080938B0386E10E94E201FA
:1016F000012B09F458C08091870390918803A09131
:101700008903B0918A03892B8A2B8B2B11F40E94B9
:10171000030661E089E10E940B0261E088E10E941A
:101720000B0260E08DE10E940B0260E08AE10E9402
:101730000B0261E08BE10E940B0261E08CE10E94F0
:101740000B0280E00E94E00561E972E081E594E02F
:101750000E94F40581E00E94E00560EA72E081E504
:1017600094E00E94F4050E946D03B4CF34E014CFDE
:101770008BE690E033CF8DE690E030CF88E02233E7
:1017800009F43ACF84E0233309F436CF82E02433DE
:1017900009F432CF82EC820F883018F42E53330BC9
:1017A00026CF81E029CF892B69F180918703909121
:1017B0008803A0918903B0918A03892B8A2B8B2BF4
:1017C00011F40E94030661E089E10E940B0261E0CE
:1017D00088E10E940B0260E08AE10E940B0261E056
:1017E0008CE10E940B0280E00E94E00561E972E05A
:1017F00081E594E00E94F40581E00E94E00561EB40
:1018000072E0ADCF60E089E10E940B0260E088E108
:101810000E940B0261E08DE10E940B0261E08AE10F
:101820000E940B0260E08BE10E940B0260E08CE101
:101830000E940B0210928703109288031092890372
:1018400010928A032FB7F89480919103909192039C
:10185000A0919303B09194032FBF409183035091C3
:1018600084036091850370918603841B950BA60BFE
:10187000B70B843F9140A105B10508F474CF81E016
:101880000E943405CE010197F1F72FB7F8948091AB
:10189000910390919203A0919303B09194032FBF71
:1018A0008093830390938403A0938503B09386036E
:1018B00080E00E94E00560EC72E051CF86E192E0AA
:1018C000909333048093320480918103909182033A
:1018D0008253944071F4E0914504F0914604908164
:1018E000809147048095892380831092820310920F
:1018F00081030895EE0FFF1F881F8BBF0790F6919D
:10190000E02D199411E0C7E4D1E000E006C0802F7B
:10191000FE010E947A0C2196011DC834D10780E097
:081920000807A9F7F894FFCFB6
:101928000000000000036A0297024D03C802A602E5
:10193800BA0200000000B8036A029B04B70314044B
:101948002A049F0300000000EE056A029B049E0320
:1019580053656E64696E67204C6F636174696F6E5E
:101968002E2E2E000D0A0041542B434D47463D3183
:101978000D0041542B434D47533D22313830220D41
:101988000053494D3830303120697320776F726BBE
:10199800696E67004C6F636174696F6E2053656E82
:1019A800742E004974277320416C6C20676F6F6434
:1019B800004669726520416C6572742121212100FD
:1019C800466C616D652044657465637465642121A6
:1019D8000047617320446574656374656421210060
:0E19E8004974277320616C6C20676F6F640078
:00000001FF
