:100000000C9448010C9479010C9479010C947901B9
:100010000C9479010C9479010C9479010C94790178
:100020000C9479010C948E070C948E070C948E0717
:100030000C9479010C9479010C9479010C94790158
:100040000C9479010C9479010C9479010C94790148
:100050000C9479010C9479010C9479010C94E406C8
:100060000C9479010C9458070C942E070C94790188
:100070000C9479010C9479010C9479010C94790118
:100080000C9479010C9479010C9479010C94790108
:100090000C9479010C9479010C9479010C940A0860
:1000A0000C9479010C9479010C9479010C947901E8
:1000B0000C9479010C9479010C9479010C947901D8
:1000C0000C9479010C9479010C9479010C947901C8
:1000D0000C9479010C9479010C9479010C947901B8
:1000E0000C9479010C94A4030C94FD020C94450625
:1000F0000C949F010C946B040C94EE020C94F50389
:100100000C9499010C94D0010C94DE010C94BE0166
:100110000C942A090C94D4010C94A3010C941F0391
:100120000C94DA010C94AD0C0C94F6030C94B80109
:100130000C94C6010C940E040C94C1020C94AB01F7
:100140000C9481040C9457030C94D9010C94110362
:100150000C94F2040C94C2010C940F040C94B4019E
:100160000C94A7010C94CC010C94AE01000021006A
:10017000240027002A002D00300033000101000078
:10018000040107010A0100000A0B02090C0D0E0808
:100190000703040100000000000000000000000050
:1001A000000000000000000000000000000000004F
:1001B000000012111000000000000000000000000C
:1001C000000000000000000000000000000020000F
:1001D0002300260029002C002F003200000100001F
:1001E00003010601090100002200250028002B0060
:1001F0002E003100340002010000050108010B014E
:1002000005050505070508080808020202020A0A92
:1002100008080404040401010101010101010303B0
:10022000030303030303040707070C0C0C0C0C0C5B
:100230000C0C0202020206060606060606060B0B58
:100240000B0B0B0B0B0B0102102020080810204099
:10025000102040800201020108040201010204088A
:100260001020408080402010080402018004020118
:100270008040201008040201080402010102040861
:100280001020408001020408102040802A09AD0C93
:1002900011241FBECFEFD1E2DEBFCDBF00E00CBF07
:1002A00012E0A0E0B2E0E6ECF9E100E00BBF02C032
:1002B00007900D92AA3EB107D9F724E0AAEEB2E06A
:1002C00001C01D92A238B207E1F711E0C7E4D1E006
:1002D00000E006C021970109802FFE010E94C90C91
:1002E000C634D10780E00807A9F70E94090A0C94D8
:1002F000D10C0C9400008150823108F05AC0E82FD4
:10030000F0E08827E957FE4F8F4F0C94C90CA701E6
:10031000AB0199019F01A301D901AE01B401B8015C
:10032000BE01C201C601CC01D001D901D401DA015C
:10033000DE01809180008F77809380000895809106
:1003400080008F7DF9CF80918000877FF5CF84B5C5
:100350008F7784BD089584B58F7DFBCF8091B000E9
:100360008F778093B00008958091B0008F7DF9CF92
:10037000809190008F7780939000089580919000F5
:100380008F7DF9CF80919000877FF5CF8091A0007D
:100390008F778093A00008958091A0008F7DF9CF82
:1003A0008091A000877FF5CF809120018F77809387
:1003B00020010895809120018F7DF9CF8091200147
:1003C000877FF5CFCF93DF93282F30E0F901EA57ED
:1003D000FE4F8491F901EA5BFD4FD491F901E050A1
:1003E000FE4FC491CC23A1F081110E947B01EC2F20
:1003F000F0E0EE0FFF1FE453FE4FA591B491EC9196
:10040000ED2381E090E009F480E0DF91CF91089541
:1004100080E090E0FACF1F93CF93DF93282F30E056
:10042000F901EA57FE4F8491F901EA5BFD4FD4913F
:10043000F901E050FE4FC491CC23A9F0162F811191
:100440000E947B01EC2FF0E0EE0FFF1FEA51FE4F00
:10045000A591B4918FB7F894EC91111108C0D09583
:10046000DE23DC938FBFDF91CF911F910895DE2BA8
:10047000F8CFCF93DF9390E0FC01EA5BFD4F24912E
:1004800080509E4FFC0184918823D1F090E0880F2A
:10049000991FFC01E459FE4FA591B491FC01EA516A
:1004A000FE4FC591D49161110EC09FB7F8948C9105
:1004B000E22FE0958E238C932881E223E8839FBF6F
:1004C000DF91CF9108958FB7F894EC91E22BEC93E4
:1004D0008FBFF6CF3FB7F8948091AA039091AB03FA
:1004E000A091AC03B091AD0326B5A89B05C02F3FEA
:1004F00019F00196A11DB11D3FBFBA2FA92F982F4A
:100500008827BC01CD01620F711D811D911D42E044
:10051000660F771F881F991F4A95D1F708958F920C
:100520009F92AF92BF92CF92DF92EF92FF924B01D8
:100530005C010E946A026B017C010E946A026C19D4
:100540007D098E099F09683E734081059105A8F3D6
:1005500021E0821A9108A108B10888EEC80E83E054
:10056000D81EE11CF11C81149104A104B10429F7E7
:10057000FF90EF90DF90CF90BF90AF909F908F90C3
:100580000895AF92BF92CF92DF92EF92FF920F93B6
:100590001F93CF93DF936C017B018B01040F151F19
:1005A000EB015E01AE18BF08C017D10759F0699181
:1005B000D601ED91FC910190F081E02DC6011995D5
:1005C000892B79F7C501DF91CF911F910F91FF9092
:1005D000EF90DF90CF90BF90AF900895FC01538DC6
:1005E000448D252F30E0842F90E0821B930B54170D
:1005F00010F0CF96089501970895FC01918D828D9A
:10060000981761F0A28DAE0FBF2FB11D5D968C9132
:10061000928D9F5F9F73928F90E008958FEF9FEF71
:100620000895FC01918D828D981731F0828DE80F2D
:10063000F11D858D90E008958FEF9FEF0895FC01E7
:10064000918D228D892F90E0805C9F4F821B9109B4
:100650008F73992708958EEA93E00E941F0321E08B
:10066000892B09F420E0822F0895FC01A48DA80FA6
:10067000B92FB11DA35ABF4F2C91848D90E00196E4
:100680008F739927848FA689B7892C93A089B18904
:100690008C91837080648C93938D848D981306C0A5
:1006A0000288F389E02D80818F7D80830895EF9209
:1006B000FF920F931F93CF93DF93EC0181E0888F1C
:1006C0009B8D8C8D98131AC0E889F989808185FFEC
:1006D00015C09FB7F894EE89FF896083E889F9898E
:1006E00080818370806480839FBF81E090E0DF9190
:1006F000CF911F910F91FF90EF900895F62E0B8DE3
:1007000010E00F5F1F4F0F731127E02E8C8D8E119D
:100710000CC00FB607FCFACFE889F989808185FF04
:10072000F5CFCE010E943503F1CFEB8DEC0FFD2FFD
:10073000F11DE35AFF4FF0829FB7F8940B8FEA89BF
:10074000FB8980818062CFCFCF93DF93EC01888DCE
:100750008823B9F0AA89BB89E889F9898C9185FD3C
:1007600003C0808186FD0DC00FB607FCF7CF8C91CA
:1007700085FFF2CF808185FFEDCFCE010E9435034A
:10078000E9CFDF91CF91089580E090E0892B29F0A7
:100790000E942B0381110E94000080E090E0892BD1
:1007A00049F080E090E0892B29F00E94000081113F
:1007B0000E94000080E090E0892B49F080E090E00A
:1007C000892B29F00E94000081110E94000080E026
:1007D00090E0892B49F080E090E0892B29F00E947D
:1007E000000081110C9400000895089520919D034C
:1007F00030919E032817390771F490919B038091E3
:100800009C03981741F0E0919B03F0E0E55AFC4F00
:10081000808190E008958FEF9FEF08950895EF9203
:10082000FF920F931F93CF93DF93DC015C96ED90C3
:10083000FC905D97E114F10479F481E090E0139667
:100840009C938E93129790E080E0DF91CF911F915F
:100850000F91FF90EF9008955196ED91FC91529772
:1008600050968C915097982F90950FB75E962C913B
:100870005E97122F127021FD6095F894208111234C
:1008800019F1282B2083E7012197F1F728E0462F63
:1008900050E0308160FF1AC0382B3083E701219788
:1008A000F1F7BA0175956795215089F7112381F009
:1008B0008081892380830FBF5C968D919C910197E5
:1008C000F1F781E090E0C1CF2923DCCF3923E5CFD8
:1008D0009081892BEFCF20919D0330919E032817A3
:1008E000390761F480919C0320919B0390E0805C28
:1008F0009F4F821B91098F739927089590E080E0A4
:10090000089520919D0330919E0328173907B9F46B
:1009100090919B0380919C03981789F0E0919B0331
:10092000F0E0E55AFC4F808120919B0330E02F5F7F
:100930003F4F2F73332720939B0390E008958FEF51
:100940009FEF089520911103260F3327331F213283
:100950003105ECF420913503FC0190E080E0243077
:1009600069F082E00895A09111032191AC014F50EC
:100970005D4FA40FB52FB11D2C930196861798F3E8
:1009800080911103680F6093110380E0089581E066
:1009900008958FEF9FEF08958FEF9FEF0895809157
:1009A000EA0290E09195819591090895CF93DF93A4
:1009B000CB01EA01642F0E94A204CE01DF91CF9106
:1009C0000895CF93DF931F92CDB7DEB7698361E0BF
:1009D000CE0101960E94A20481E090E00F90DF9189
:1009E000CF91089590E080E00895CF93DF93EC01DC
:1009F00060E08E810E940B0261E08E810E940B02FA
:100A000060E08E810E940B028BE891E00197F1F784
:100A1000DF91CF910895CF92DF92EF92FF920F93E3
:100A20001F93CF93DF936C017C0187E0E80EF11CEC
:100A3000D0E0C0E0062F10E0B8010C2E02C0759582
:100A400067950A94E2F76170F70181917F010E9436
:100A50000B022196C430D10579F7C601DF91CF9101
:100A60001F910F91FF90EF90DF90CF900C94F504C1
:100A7000CF92DF92EF92FF920F931F93CF93DF936A
:100A8000EC01F62E642F8C810E940B028D818F3F2A
:100A900019F060E00E940B020F2D10E08F8584FF9B
:100AA00025C06E0187E0C80ED11CF12CE12CB801E5
:100AB0000E2C02C0759567950A94E2F76170F601F5
:100AC00081916F010E940B02FFEFEF1AFF0A88E08D
:100AD000E816F10461F7CE01DF91CF911F910F91DC
:100AE000FF90EF90DF90CF900C94F504B80184E074
:100AF000759567958A95E1F7CE010E940B056F2DDC
:100B0000CE01DF91CF911F910F91FF90EF90DF9079
:100B1000CF900C940B0540E0682F8AE694E00C948B
:100B20003805CF93DF93823029F49091790498604F
:100B30009093790480937D0410927E0480E48093E6
:100B40007F0480E18093800480E58093810461E0EC
:100B500080916E040E94390280916F048F3F19F0DA
:100B600061E00E94390261E0809170040E943902C4
:100B7000CAE6D4E09E012A5634408091790484FD6F
:100B80000BC084E090E021962817390744F461E017
:100B90008E810E943902EECF88E090E0F4CF8BE3A3
:100BA0009DE00197F1F760E080916E040E940B02D6
:100BB00060E0809170040E940B0280916F048F3F6F
:100BC00019F060E00E940B028091790484FD39C025
:100BD00063E08AE694E00E940B05CBE4D6E4CE0104
:100BE0000197F1F763E08AE694E00E940B052197F4
:100BF000F1F763E08AE694E00E940B0583E592E05A
:100C00000197F1F762E08AE694E00E940B0580917B
:100C1000790480620E948B0584E080937A048CE0E2
:100C20000E948B0581E00E948B058BE39FE1019779
:100C3000F1F782E080937B0486E0DF91CF910C9402
:100C40008B0580620E948B058BE496E40197F1F797
:100C50008091790480620E948B0583E592E0019780
:100C6000F1F78091790480620E948B05D0CF90913A
:100C70007D04891710F08FEF890FE82FF0E0E65917
:100C8000FB4F848980680C948B0541E00E943805F5
:100C900081E090E00895FB0101900020E9F7319791
:100CA000AF01461B570BDC01ED91FC910280F381F3
:100CB000E02D1994CF93DF93BC018EEA93E00E945C
:100CC0004B06EC0160E372E08EEA93E00E944B0673
:100CD0008C0F9D1FDF91CF9108950C944B061F93AD
:100CE000CF93DF9385ED8093BC008091ED029091CE
:100CF000EE02A091EF02B091F0020796A11DB11D86
:100D000023E0B695A795979587952A95D1F72091D9
:100D1000BC0024FD03C01092350352C04091ED0287
:100D20005091EE026091EF027091F002452B462B3C
:100D3000472B69F30097A105B10541F02AE22A95F6
:100D4000F1F700C00197A109B109E1CF8091EC0250
:100D5000C1E0C093EB02882399F1D091B8001091C3
:100D6000BA008091BC008A7B8093BC0060E084E183
:100D70000E940B0260E085E10E940B021092350395
:100D8000C09337031092360361E084E10E940B02A6
:100D900061E085E10E940B028091B9008E7F809313
:100DA000B9008091B9008D7F8093B90088E4809369
:100DB000B80085E48093BC001093BA00D093B800CB
:100DC000DF91CF911F9108951F920F920FB60F924E
:100DD00011242F933F938F939F93AF93BF93809151
:100DE000A6039091A703A091A803B091A903309105
:100DF000A50323E0230F2D3758F50196A11DB11D42
:100E00002093A5038093A6039093A703A093A80320
:100E1000B093A9038091AA039091AB03A091AC0376
:100E2000B091AD030196A11DB11D8093AA039093CB
:100E3000AB03A093AC03B093AD03BF91AF919F916F
:100E40008F913F912F910F900FBE0F901F9018958B
:100E500026E8230F0296A11DB11DD2CF1F920F923B
:100E60000FB60F9211240BB60F922F933F934F930F
:100E70005F936F937F938F939F93AF93BF93EF9302
:100E8000FF938EEA93E00E943503FF91EF91BF91AB
:100E9000AF919F918F917F916F915F914F913F9112
:100EA0002F910F900BBE0F900FBE0F901F901895B3
:100EB0001F920F920FB60F9211240BB60F922F9321
:100EC0008F939F93EF93FF93E091BE03F091BF0345
:100ED0008081E091C403F091C50382FD1DC0908123
:100EE0008091C7038F5F8F732091C803821741F0F1
:100EF000E091C703F0E0E255FC4F958F8093C70364
:100F0000FF91EF919F918F912F910F900BBE0F90BA
:100F10000FBE0F901F9018958081F2CF1F920F92F5
:100F20000FB60F9211240BB60F922F933F934F934E
:100F30005F936F937F938F939F93AF93BF93EF9341
:100F4000FF93E0919D03F0919E03309749F0A685B1
:100F5000B7858585968D91FF16C09C918923B1F444
:100F6000FF91EF91BF91AF919F918F917F916F9181
:100F70005F914F913F912F910F900BBE0F900FBE3D
:100F80000F901F9018959C91892351F7A389B489DC
:100F90009C918589809589238C938689978901976F
:100FA000F1F7608D718DA685B785558538E020E015
:100FB000CB010197F1F7822F90E095958795282F27
:100FC0004C91452309F02068315091F7868D81FDC1
:100FD000209580919C0390E001968F739927309122
:100FE0009B03381799F0A0919C03B0E0A55ABC4F21
:100FF0002C9380939C03828D938D0197F1F7A389A5
:10100000B4898C919589892B8C93AACF868D816028
:10101000868FF1CF1F920F920FB60F9211240BB64D
:101020000F922F933F934F935F936F937F938F9381
:101030009F93AF93BF93EF93FF938091B900887F05
:10104000803609F44DC008F040C0883209F4A7C0CA
:1010500028F5803109F49BC0C8F4882309F4F7C04F
:10106000883009F494C0FF91EF91BF91AF919F91A7
:101070008F917F916F915F914F913F912F910F9041
:101080000BBE0F900FBE0F901F901895883109F47A
:1010900086C0803241F78093340314C0803409F451
:1010A0009BC040F48033B9F38833E9F6809334036E
:1010B00085ECAEC0803509F483C0883509F494C04E
:1010C000883489F60E946F06CECF883909F48AC029
:1010D00038F5883729F050F4883611F0803719F642
:1010E00083E0809335031092330355C0883809F4A8
:1010F00079C0803919F0803809F0B5CF8091330379
:10110000803208F06FC0E091330381E08E0F80934E
:1011100033038091BB00F0E0ED5EFC4F80833BC069
:10112000803B39F0D0F4803A09F477C0883A09F06E
:101130009ACF84E08093350310921203109211032A
:10114000F0E0E0E019958091110381110FC081E07A
:10115000809311031092F10209C0803C09F4A8CFDA
:10116000883C09F4A5CF883B09F07DCFE0911203BC
:1011700081E08E0F80931203F0E0EF50FD4F8081ED
:101180008093BB00909112038091110329C080913C
:101190005A038093BB0085EC8093BC0064CF909190
:1011A000590380915803981758F5E091590381E04D
:1011B0008E0F80935903F0E0E85CFC4F8081E9CF0B
:1011C000E091590381E08E0F809359038091BB0019
:1011D000F0E0E85CFC4F80839091590380915803C4
:1011E0009817C8F285E8D8CFE091590381E08E0FB7
:1011F000809359038091BB00F0E0E85CFC4F808352
:101200008091370381115ECF81E08093360384EAB9
:101210008093BC001092350326CF85EC8093BC00F0
:101220001092350380913303803230F4E091330320
:10123000F0E0ED5EFC4F10826091330370E083E1DB
:1012400093E0F0E0E0E01995109233030CCF109298
:10125000340338CFCF92DF92EF92FF921092B10316
:101260001092B00398EEC92E93E0D92EE12CF12C08
:10127000C092B203D092B303E092B403F092B503EC
:1012800084E092E09093AF038093AE0385EC90E00E
:101290009093BB038093BA0384EC90E09093BD03DA
:1012A0008093BC0380EC90E09093BF038093BE03D7
:1012B00081EC90E09093C1038093C00382EC90E0B6
:1012C0009093C3038093C20386EC90E09093C50390
:1012D0008093C4031092C7031092C8031092C903ED
:1012E0001092CA0310926D0410926C0488E292E08E
:1012F00090936B0480936A0485E380936E048FEF70
:1013000080936F0484E38093700483E3809371047B
:1013100082E38093720481E38093730480E380937B
:10132000740410927504109276041092770410924F
:1013300078041092790481E00E94910510924E0485
:1013400010924D04C0924F04D0925004E092510488
:10135000F092520486E192E090934C0480934B0407
:10136000109262041092610410926404109263045B
:10137000109266041092650410926804109267043B
:10138000609169046E7F6D7F6093690466956170FA
:1013900081E068270E940B0261E081E00E9439022F
:1013A000E7E4F2E0E491E0935B04E1E0F2E0E49151
:1013B000F0E0EE0FFF1FEA51FE4F8591949190935C
:1013C0005D0480935C0460E080E00E9439028091BB
:1013D000690481FD04C061E080E00E940B0210926C
:1013E0005704E6E4F2E0E491E0935804E0E0F2E030
:1013F000E491F0E0EE0FFF1FE453FE4F85919491CE
:1014000090935A0480935904FF90EF90DF90CF900F
:101410000895789484B5826084BD84B5816084BD6C
:1014200085B5826085BD85B5816085BD80916E0082
:10143000816080936E0010928100809181008260B3
:1014400080938100809181008160809381008091F0
:1014500080008160809380008091B10084608093DF
:10146000B1008091B00081608093B00080919100C4
:1014700082608093910080919100816080939100BF
:10148000809190008160809390008091A1008260A3
:101490008093A1008091A10081608093A100809140
:1014A000A00081608093A0008091210182608093E0
:1014B000210180912101816080932101809120018F
:1014C00081608093200180917A00846080937A000B
:1014D00080917A00826080937A0080917A008160A6
:1014E00080937A0080917A00806880937A001092CD
:1014F000C10060E087E10E94390260E086E10E945D
:10150000390261E089E10E94390261E088E10E94CC
:10151000390261E08AE10E94390261E08BE10E94B8
:10152000390261E08CE10E94390261E08DE10E94A4
:10153000390282E00E94910563E372E08AE694E05A
:101540000E946D0610926604109265041092640465
:101550001092630410926204109261048DE991E08C
:1015600090936804809367048091570496EF980FD6
:10157000943048F02EEC280F243028F022EC280F6D
:10158000283008F061C02DEB30E0309362042093E6
:1015900061042BE931E030936404209363042CE26E
:1015A00031E03093660420936504943050F02EECC3
:1015B000280F243030F022EC280FF0E0E0E0283053
:1015C00010F4E8E6F0E02081943028F032EC380F97
:1015D000383008F42CC131E0232B943048F09EECD5
:1015E000980F943028F08E53F0E0E0E0883010F44B
:1015F000E8E6F0E020832091570436EF320F3430D4
:1016000008F417C18EEC820F843008F412C182EC0A
:10161000820F883008F410C190E080E090935F045E
:1016200080935E04343008F00AC12650330B81E009
:1016300001C0880F2A95EAF78093600480916704BF
:10164000909168040197F1F7809165049091660488
:10165000892B49F1E0919D03F0919E0324E0EB3446
:10166000F20709F1309739F0A389B4899C918589F3
:10167000809589238C93809169048E7F809369047F
:1016800010929C0310929B038BE494E090939E0332
:1016900080939D03E0915E04F0915F0480819091BE
:1016A0006004892B8083E091BE03F091BF0382E048
:1016B0008083E091BA03F091BB031082E091BC03F8
:1016C000F091BD038FEC80831092C603E091C203BA
:1016D000F091C30386E08083E091C003F091C103E1
:1016E000808180618083E091C003F091C10380819B
:1016F00088608083E091C003F091C103808180689D
:101700008083E091C003F091C10380818F7D80834D
:1017100068EE73E080E090E00E948F02CBE3DFE1AF
:1017200087E10E94E2018C0181E00115110509F4B5
:1017300080E08093A40386E10E94E20121E000970B
:1017400009F420E02093A303012B19F4892B09F459
:10175000ADC081E492E00E945A068091A4038823E0
:1017600009F482C080E00E94370661E472E08AE6F4
:1017700094E00E946D0681E00E94370660E572E009
:101780008AE694E00E946D0661E089E10E940B0206
:1017900061E088E10E940B0261E08AE10E940B0295
:1017A00061E08BE10E940B0261E08CE10E940B0280
:1017B00060E08DE10E940B0281E892E00E945A06EF
:1017C00065E972E08BE494E00E946D0664E670E0E7
:1017D00080E090E00E948F0260EA72E08BE494E087
:1017E0000E946D0664E670E080E090E00E948F0247
:1017F00069EB72E08BE494E00E946D0664E670E0B1
:1018000080E090E00E948F0260E372E08BE494E05D
:101810000E944B068CEC92E00E945A0664E670E04F
:1018200080E090E00E948F020E94C40379CF34E0F0
:10183000D3CE8BE690E0F2CE8DE690E0EFCE88E05E
:10184000223309F4F9CE84E0233309F4F5CE82E0A3
:10185000243309F4F1CE82EC820F883018F42E5331
:10186000330BE5CE81E0E8CE8091A303882379F0A5
:1018700080E00E94370661E472E08AE694E00E940C
:101880006D0681E00E94370661E672E079CF80E064
:101890000E94370661E472E08AE694E00E946D06D9
:1018A00081E00E94370660E772E06ACF2FB7F894B4
:1018B0008091A6039091A703A091A803B091A903DA
:1018C0002FBF40919F035091A0036091A10370919D
:1018D000A203841B950BA60BB70B843F9140A10577
:1018E000B10510F181E00E948B05CE010197F1F75F
:1018F0002FB7F8948091A6039091A703A091A80315
:10190000B091A9032FBF80939F039093A003A0934E
:10191000A103B093A20380E00E9437066BED72E052
:101920008AE694E00E946D0660E089E10E940B0265
:1019300060E088E10E940B0260E08AE10E940B02F5
:1019400060E08BE10E940B0260E08CE10E940B02E0
:1019500061E08DE10E940B0267CF86E192E09093F7
:101960004C0480934B0480919D0390919E038B5473
:10197000944071F4E0915E04F0915F049081809155
:10198000600480958923808310929E0310929D03AA
:101990000895EE0FFF1F881F8BBF0790F691E02D73
:1019A000199411E0C7E4D1E000E006C0802FFE01E9
:1019B0000E94C90C2196011DC834D10780E0080798
:0619C000A9F7F894FFCF27
:1019C600000000005703C102EE02A4031F03FD023C
:1019D6001103000000000F04C102F2040E046B04A0
:1019E6008104F603000000004506C102F204F50377
:1019F6000D0A004974277320416C6C20676F6F6471
:101A0600004669726520416C6572742121212100AE
:101A1600466C616D65204465746563746564212157
:101A26000047617320446574656374656421210011
:101A360047617326466C616D6520466F756E64213D
:101A46000053656E64696E67204C6F636174696FDD
:101A56006E2E2E2E0041542B434D47463D310D0030
:101A660041542B434D47533D222B323031303232D5
:101A7600353436303034220D0053494D383030314C
:101A860020697320776F726B696E67004C6F6361B4
:101A960074696F6E2053656E742E00497427732027
:0A1AA600616C6C20676F6F64000034
:00000001FF
